{
  "contractName": "Proof",
  "abi": [
    {
      "inputs": [],
      "payable": false,
      "stateMutability": "nonpayable",
      "type": "constructor"
    },
    {
      "payable": true,
      "stateMutability": "payable",
      "type": "fallback"
    },
    {
      "anonymous": false,
      "inputs": [
        {
          "indexed": false,
          "name": "status",
          "type": "bool"
        },
        {
          "indexed": false,
          "name": "timestamp",
          "type": "uint256"
        },
        {
          "indexed": false,
          "name": "firstname",
          "type": "string"
        },
        {
          "indexed": false,
          "name": "lastname",
          "type": "string"
        },
        {
          "indexed": false,
          "name": "email",
          "type": "string"
        },
        {
          "indexed": false,
          "name": "fileHash",
          "type": "string"
        }
      ],
      "name": "logFileAddedStatus",
      "type": "event"
    },
    {
      "constant": false,
      "inputs": [
        {
          "name": "to",
          "type": "address"
        },
        {
          "name": "amount",
          "type": "uint256"
        }
      ],
      "name": "withdraw",
      "outputs": [],
      "payable": false,
      "stateMutability": "nonpayable",
      "type": "function"
    },
    {
      "constant": false,
      "inputs": [
        {
          "name": "firstname",
          "type": "string"
        },
        {
          "name": "lastname",
          "type": "string"
        },
        {
          "name": "email",
          "type": "string"
        },
        {
          "name": "fileHash",
          "type": "string"
        }
      ],
      "name": "setFile",
      "outputs": [],
      "payable": true,
      "stateMutability": "payable",
      "type": "function"
    },
    {
      "constant": false,
      "inputs": [
        {
          "name": "firstname",
          "type": "string"
        },
        {
          "name": "lastname",
          "type": "string"
        },
        {
          "name": "email",
          "type": "string"
        },
        {
          "name": "fileHash",
          "type": "string"
        }
      ],
      "name": "addOwner",
      "outputs": [],
      "payable": true,
      "stateMutability": "payable",
      "type": "function"
    },
    {
      "constant": false,
      "inputs": [
        {
          "name": "fileHash",
          "type": "string"
        },
        {
          "name": "ownerNumber",
          "type": "uint256"
        }
      ],
      "name": "removeOwner",
      "outputs": [],
      "payable": true,
      "stateMutability": "payable",
      "type": "function"
    },
    {
      "constant": true,
      "inputs": [
        {
          "name": "fileHash",
          "type": "string"
        }
      ],
      "name": "getFile",
      "outputs": [
        {
          "name": "timestamp",
          "type": "uint256"
        },
        {
          "name": "ownerNumbers",
          "type": "uint256"
        },
        {
          "name": "firstname",
          "type": "string"
        },
        {
          "name": "lastname",
          "type": "string"
        },
        {
          "name": "email",
          "type": "string"
        }
      ],
      "payable": false,
      "stateMutability": "view",
      "type": "function"
    },
    {
      "constant": true,
      "inputs": [
        {
          "name": "fileHash",
          "type": "string"
        },
        {
          "name": "ownerNumber",
          "type": "uint256"
        }
      ],
      "name": "getFileOwner",
      "outputs": [
        {
          "name": "ownerFirstName",
          "type": "string"
        },
        {
          "name": "ownerLastName",
          "type": "string"
        },
        {
          "name": "ownerEmail",
          "type": "string"
        }
      ],
      "payable": false,
      "stateMutability": "view",
      "type": "function"
    }
  ],
  "bytecode": "0x608060405234801561001057600080fd5b50336000806101000a81548173ffffffffffffffffffffffffffffffffffffffff021916908373ffffffffffffffffffffffffffffffffffffffff160217905550611d5d806100606000396000f300608060405260043610610078576000357c0100000000000000000000000000000000000000000000000000000000900463ffffffff1680634efb8a4b1461007a578063aac3b6c3146100e0578063cc261e681461020e578063e0876aa8146103d2578063e17971b91461059a578063f3fef3a3146106c8575b005b6100de600480360381019080803590602001908201803590602001908080601f016020809104026020016040519081016040528093929190818152602001838380828437820191505050505050919291929080359060200190929190505050610715565b005b61020c600480360381019080803590602001908201803590602001908080601f0160208091040260200160405190810160405280939291908181526020018383808284378201915050505050509192919290803590602001908201803590602001908080601f0160208091040260200160405190810160405280939291908181526020018383808284378201915050505050509192919290803590602001908201803590602001908080601f0160208091040260200160405190810160405280939291908181526020018383808284378201915050505050509192919290803590602001908201803590602001908080601f0160208091040260200160405190810160405280939291908181526020018383808284378201915050505050509192919290505050610a25565b005b34801561021a57600080fd5b5061027f600480360381019080803590602001908201803590602001908080601f016020809104026020016040519081016040528093929190818152602001838380828437820191505050505050919291929080359060200190929190505050610d5b565b60405180806020018060200180602001848103845287818151815260200191508051906020019080838360005b838110156102c75780820151818401526020810190506102ac565b50505050905090810190601f1680156102f45780820380516001836020036101000a031916815260200191505b50848103835286818151815260200191508051906020019080838360005b8381101561032d578082015181840152602081019050610312565b50505050905090810190601f16801561035a5780820380516001836020036101000a031916815260200191505b50848103825285818151815260200191508051906020019080838360005b83811015610393578082015181840152602081019050610378565b50505050905090810190601f1680156103c05780820380516001836020036101000a031916815260200191505b50965050505050505060405180910390f35b3480156103de57600080fd5b50610439600480360381019080803590602001908201803590602001908080601f01602080910402602001604051908101604052809392919081815260200183838082843782019150505050505091929192905050506110be565b60405180868152602001858152602001806020018060200180602001848103845287818151815260200191508051906020019080838360005b8381101561048d578082015181840152602081019050610472565b50505050905090810190601f1680156104ba5780820380516001836020036101000a031916815260200191505b50848103835286818151815260200191508051906020019080838360005b838110156104f35780820151818401526020810190506104d8565b50505050905090810190601f1680156105205780820380516001836020036101000a031916815260200191505b50848103825285818151815260200191508051906020019080838360005b8381101561055957808201518184015260208101905061053e565b50505050905090810190601f1680156105865780820380516001836020036101000a031916815260200191505b509850505050505050505060405180910390f35b6106c6600480360381019080803590602001908201803590602001908080601f0160208091040260200160405190810160405280939291908181526020018383808284378201915050505050509192919290803590602001908201803590602001908080601f0160208091040260200160405190810160405280939291908181526020018383808284378201915050505050509192919290803590602001908201803590602001908080601f0160208091040260200160405190810160405280939291908181526020018383808284378201915050505050509192919290803590602001908201803590602001908080601f0160208091040260200160405190810160405280939291908181526020018383808284378201915050505050509192919290505050611508565b005b3480156106d457600080fd5b50610713600480360381019080803573ffffffffffffffffffffffffffffffffffffffff16906020019092919080359060200190929190505050611b78565b005b60003411151561072457600080fd5b816002816040518082805190602001908083835b60208310151561075d5780518252602082019150602081019050602083039250610738565b6001836020036101000a038019825116818451168082178552505050505050905001915050908152602001604051809103902060020160009054906101000a900473ffffffffffffffffffffffffffffffffffffffff1673ffffffffffffffffffffffffffffffffffffffff163373ffffffffffffffffffffffffffffffffffffffff161415156107ed57600080fd5b6000821115156107fc57600080fd5b60006002846040518082805190602001908083835b6020831015156108365780518252602082019150602081019050602083039250610811565b6001836020036101000a038019825116818451168082178552505050505050905001915050908152602001604051809103902060000154141515610a2057816002846040518082805190602001908083835b6020831015156108ad5780518252602082019150602081019050602083039250610888565b6001836020036101000a038019825116818451168082178552505050505050905001915050908152602001604051809103902060010154101515156108f157600080fd5b6002836040518082805190602001908083835b6020831015156109295780518252602082019150602081019050602083039250610904565b6001836020036101000a038019825116818451168082178552505050505050905001915050908152602001604051809103902060010160008154809291906001900391905055506001836040518082805190602001908083835b6020831015156109a85780518252602082019150602081019050602083039250610983565b6001836020036101000a03801982511681845116808217855250505050505090500191505090815260200160405180910390206000838152602001908152602001600020600080820160006109fd9190611c44565b600182016000610a0d9190611c44565b600282016000610a1d9190611c44565b50505b505050565b600034111515610a3457600080fd5b806002816040518082805190602001908083835b602083101515610a6d5780518252602082019150602081019050602083039250610a48565b6001836020036101000a038019825116818451168082178552505050505050905001915050908152602001604051809103902060020160009054906101000a900473ffffffffffffffffffffffffffffffffffffffff1673ffffffffffffffffffffffffffffffffffffffff163373ffffffffffffffffffffffffffffffffffffffff16141515610afd57600080fd5b60006002836040518082805190602001908083835b602083101515610b375780518252602082019150602081019050602083039250610b12565b6001836020036101000a038019825116818451168082178552505050505050905001915050908152602001604051809103902060000154141515610d54576002826040518082805190602001908083835b602083101515610bad5780518252602082019150602081019050602083039250610b88565b6001836020036101000a038019825116818451168082178552505050505050905001915050908152602001604051809103902060010160008154809291906001019190505550606060405190810160405280868152602001858152602001848152506001836040518082805190602001908083835b602083101515610c475780518252602082019150602081019050602083039250610c22565b6001836020036101000a038019825116818451168082178552505050505050905001915050908152602001604051809103902060006002856040518082805190602001908083835b602083101515610cb45780518252602082019150602081019050602083039250610c8f565b6001836020036101000a03801982511681845116808217855250505050505090500191505090815260200160405180910390206001015481526020019081526020016000206000820151816000019080519060200190610d15929190611c8c565b506020820151816001019080519060200190610d32929190611c8c565b506040820151816002019080519060200190610d4f929190611c8c565b509050505b5050505050565b60608060606001856040518082805190602001908083835b602083101515610d985780518252602082019150602081019050602083039250610d73565b6001836020036101000a038019825116818451168082178552505050505050905001915050908152602001604051809103902060008581526020019081526020016000206000016001866040518082805190602001908083835b602083101515610e175780518252602082019150602081019050602083039250610df2565b6001836020036101000a038019825116818451168082178552505050505050905001915050908152602001604051809103902060008681526020019081526020016000206001016001876040518082805190602001908083835b602083101515610e965780518252602082019150602081019050602083039250610e71565b6001836020036101000a03801982511681845116808217855250505050505090500191505090815260200160405180910390206000878152602001908152602001600020600201828054600181600116156101000203166002900480601f016020809104026020016040519081016040528092919081815260200182805460018160011615610100020316600290048015610f725780601f10610f4757610100808354040283529160200191610f72565b820191906000526020600020905b815481529060010190602001808311610f5557829003601f168201915b50505050509250818054600181600116156101000203166002900480601f01602080910402602001604051908101604052809291908181526020018280546001816001161561010002031660029004801561100e5780601f10610fe35761010080835404028352916020019161100e565b820191906000526020600020905b815481529060010190602001808311610ff157829003601f168201915b50505050509150808054600181600116156101000203166002900480601f0160208091040260200160405190810160405280929190818152602001828054600181600116156101000203166002900480156110aa5780601f1061107f576101008083540402835291602001916110aa565b820191906000526020600020905b81548152906001019060200180831161108d57829003601f168201915b505050505090509250925092509250925092565b60008060608060606002866040518082805190602001908083835b6020831015156110fe57805182526020820191506020810190506020830392506110d9565b6001836020036101000a0380198251168184511680821785525050505050509050019150509081526020016040518091039020600001546002876040518082805190602001908083835b60208310151561116d5780518252602082019150602081019050602083039250611148565b6001836020036101000a0380198251168184511680821785525050505050509050019150509081526020016040518091039020600101546001886040518082805190602001908083835b6020831015156111dc57805182526020820191506020810190506020830392506111b7565b6001836020036101000a038019825116818451168082178552505050505050905001915050908152602001604051809103902060008081526020019081526020016000206000016001896040518082805190602001908083835b60208310151561125b5780518252602082019150602081019050602083039250611236565b6001836020036101000a0380198251168184511680821785525050505050509050019150509081526020016040518091039020600080815260200190815260200160002060010160018a6040518082805190602001908083835b6020831015156112da57805182526020820191506020810190506020830392506112b5565b6001836020036101000a03801982511681845116808217855250505050505090500191505090815260200160405180910390206000808152602001908152602001600020600201828054600181600116156101000203166002900480601f0160208091040260200160405190810160405280929190818152602001828054600181600116156101000203166002900480156113b65780601f1061138b576101008083540402835291602001916113b6565b820191906000526020600020905b81548152906001019060200180831161139957829003601f168201915b50505050509250818054600181600116156101000203166002900480601f0160208091040260200160405190810160405280929190818152602001828054600181600116156101000203166002900480156114525780601f1061142757610100808354040283529160200191611452565b820191906000526020600020905b81548152906001019060200180831161143557829003601f168201915b50505050509150808054600181600116156101000203166002900480601f0160208091040260200160405190810160405280929190818152602001828054600181600116156101000203166002900480156114ee5780601f106114c3576101008083540402835291602001916114ee565b820191906000526020600020905b8154815290600101906020018083116114d157829003601f168201915b505050505090509450945094509450945091939590929450565b60003411151561151757600080fd5b60006002826040518082805190602001908083835b602083101515611551578051825260208201915060208101905060208303925061152c565b6001836020036101000a038019825116818451168082178552505050505050905001915050908152602001604051809103902060000154141561197957606060405190810160405280858152602001848152602001838152506001826040518082805190602001908083835b6020831015156115e257805182526020820191506020810190506020830392506115bd565b6001836020036101000a038019825116818451168082178552505050505050905001915050908152602001604051809103902060008081526020019081526020016000206000820151816000019080519060200190611642929190611c8c565b50602082015181600101908051906020019061165f929190611c8c565b50604082015181600201908051906020019061167c929190611c8c565b50905050606060405190810160405280428152602001600081526020013373ffffffffffffffffffffffffffffffffffffffff168152506002826040518082805190602001908083835b6020831015156116eb57805182526020820191506020810190506020830392506116c6565b6001836020036101000a0380198251168184511680821785525050505050509050019150509081526020016040518091039020600082015181600001556020820151816001015560408201518160020160006101000a81548173ffffffffffffffffffffffffffffffffffffffff021916908373ffffffffffffffffffffffffffffffffffffffff1602179055509050507fd8ace96949dd9dcd5eae8a740b5863319111364ba7807ce2c47f96b8b113048460014286868686604051808715151515815260200186815260200180602001806020018060200180602001858103855289818151815260200191508051906020019080838360005b838110156118005780820151818401526020810190506117e5565b50505050905090810190601f16801561182d5780820380516001836020036101000a031916815260200191505b50858103845288818151815260200191508051906020019080838360005b8381101561186657808201518184015260208101905061184b565b50505050905090810190601f1680156118935780820380516001836020036101000a031916815260200191505b50858103835287818151815260200191508051906020019080838360005b838110156118cc5780820151818401526020810190506118b1565b50505050905090810190601f1680156118f95780820380516001836020036101000a031916815260200191505b50858103825286818151815260200191508051906020019080838360005b83811015611932578082015181840152602081019050611917565b50505050905090810190601f16801561195f5780820380516001836020036101000a031916815260200191505b509a505050505050505050505060405180910390a1611b72565b7fd8ace96949dd9dcd5eae8a740b5863319111364ba7807ce2c47f96b8b113048460004286868686604051808715151515815260200186815260200180602001806020018060200180602001858103855289818151815260200191508051906020019080838360005b838110156119fd5780820151818401526020810190506119e2565b50505050905090810190601f168015611a2a5780820380516001836020036101000a031916815260200191505b50858103845288818151815260200191508051906020019080838360005b83811015611a63578082015181840152602081019050611a48565b50505050905090810190601f168015611a905780820380516001836020036101000a031916815260200191505b50858103835287818151815260200191508051906020019080838360005b83811015611ac9578082015181840152602081019050611aae565b50505050905090810190601f168015611af65780820380516001836020036101000a031916815260200191505b50858103825286818151815260200191508051906020019080838360005b83811015611b2f578082015181840152602081019050611b14565b50505050905090810190601f168015611b5c5780820380516001836020036101000a031916815260200191505b509a505050505050505050505060405180910390a15b50505050565b6000809054906101000a900473ffffffffffffffffffffffffffffffffffffffff1673ffffffffffffffffffffffffffffffffffffffff163373ffffffffffffffffffffffffffffffffffffffff16141515611bd357600080fd5b803073ffffffffffffffffffffffffffffffffffffffff163110151515611bf957600080fd5b8173ffffffffffffffffffffffffffffffffffffffff166108fc829081150290604051600060405180830381858888f19350505050158015611c3f573d6000803e3d6000fd5b505050565b50805460018160011615610100020316600290046000825580601f10611c6a5750611c89565b601f016020900490600052602060002090810190611c889190611d0c565b5b50565b828054600181600116156101000203166002900490600052602060002090601f016020900481019282601f10611ccd57805160ff1916838001178555611cfb565b82800160010185558215611cfb579182015b82811115611cfa578251825591602001919060010190611cdf565b5b509050611d089190611d0c565b5090565b611d2e91905b80821115611d2a576000816000905550600101611d12565b5090565b905600a165627a7a723058204bbc0989cbb3f8ea980b2e545d811c8aff9bd920634f3c46b59cea2ed7f354590029",
  "source": "pragma solidity ^0.4.24;\r\n\r\ncontract Proof\r\n{\r\n    address private _owner;\r\n\r\n    struct OwnerDetails {\r\n        string firstname;\r\n        string lastname;\r\n        string email;\r\n    }\r\n\r\n    mapping(string => mapping(uint => OwnerDetails)) _owners;\r\n\r\n    struct FileDetails {\r\n        uint timestamp;\r\n        uint ownerNumbers;\r\n        address mainOwner;\r\n    }\r\n\r\n    mapping(string => FileDetails) _files;\r\n\r\n    modifier validOwner() {\r\n        require(msg.sender == _owner);\r\n        _;\r\n    }\r\n\r\n    modifier validValue() {\r\n        require(msg.value > 0);\r\n        _;\r\n    }\r\n\r\n    modifier validMainFileOwner(string fileHash) {\r\n        require(msg.sender == _files[fileHash].mainOwner);\r\n        _;\r\n    }\r\n\r\n    event logFileAddedStatus(bool status, uint timestamp, string firstname, string lastname, string email, string fileHash);\r\n\r\n    constructor() public {\r\n        _owner = msg.sender;\r\n    }\r\n\r\n    function() public payable {}\r\n\r\n    function withdraw(address to, uint amount) validOwner public {\r\n        require(address(this).balance >= amount);\r\n        to.transfer(amount);\r\n    }\r\n\r\n    function setFile(string firstname, string lastname, string email, string fileHash) validValue public payable {\r\n        if (_files[fileHash].timestamp == 0) {\r\n            _owners[fileHash][0] = OwnerDetails(firstname, lastname, email);\r\n            _files[fileHash] = FileDetails(block.timestamp, 0, msg.sender);\r\n            emit logFileAddedStatus(true, block.timestamp, firstname, lastname, email, fileHash);\r\n        }\r\n        else {\r\n            emit logFileAddedStatus(false, block.timestamp, firstname, lastname, email, fileHash);\r\n        }\r\n    }\r\n\r\n    function addOwner(string firstname, string lastname, string email, string fileHash) validValue validMainFileOwner(fileHash) public payable {\r\n        if (_files[fileHash].timestamp != 0) {\r\n            _files[fileHash].ownerNumbers++;\r\n            _owners[fileHash][_files[fileHash].ownerNumbers] = OwnerDetails(firstname, lastname, email);\r\n        }\r\n    }\r\n\r\n    function removeOwner(string fileHash, uint ownerNumber) validValue validMainFileOwner(fileHash) public payable {\r\n        require(ownerNumber > 0);\r\n        if (_files[fileHash].timestamp != 0) {\r\n            require(_files[fileHash].ownerNumbers >= ownerNumber);\r\n            _files[fileHash].ownerNumbers--;\r\n            delete _owners[fileHash][ownerNumber];\r\n        }\r\n    }\r\n\r\n    function getFile(string fileHash) public constant returns (uint timestamp, uint ownerNumbers, string firstname, string lastname, string email) {\r\n        return (_files[fileHash].timestamp, _files[fileHash].ownerNumbers, _owners[fileHash][0].firstname, _owners[fileHash][0].lastname, _owners[fileHash][0].email);\r\n    }\r\n\r\n    function getFileOwner(string fileHash, uint ownerNumber) public constant returns (string ownerFirstName, string ownerLastName, string ownerEmail) {\r\n        return (_owners[fileHash][ownerNumber].firstname, _owners[fileHash][ownerNumber].lastname, _owners[fileHash][ownerNumber].email);\r\n    }\r\n\r\n}\r\n",
  "sourcePath": "E:\\simeon\\EthereumContracts\\contracts\\Proof.sol",
  "compiler": {
    "name": "solc",
    "version": "0.4.24+commit.e67f0147.Emscripten.clang"
  },
  "schemaVersion": "2.0.1",
  "updatedAt": "2018-09-19T12:56:13.242Z"
}