{
  "contractName": "Proof",
  "abi": [
    {
      "inputs": [],
      "payable": false,
      "stateMutability": "nonpayable",
      "type": "constructor"
    },
    {
      "payable": true,
      "stateMutability": "payable",
      "type": "fallback"
    },
    {
      "anonymous": false,
      "inputs": [
        {
          "indexed": false,
          "name": "status",
          "type": "bool"
        },
        {
          "indexed": false,
          "name": "timestamp",
          "type": "uint256"
        },
        {
          "indexed": false,
          "name": "firstname",
          "type": "string"
        },
        {
          "indexed": false,
          "name": "lastname",
          "type": "string"
        },
        {
          "indexed": false,
          "name": "email",
          "type": "string"
        },
        {
          "indexed": false,
          "name": "fileHash",
          "type": "string"
        },
        {
          "indexed": false,
          "name": "ipfsHash",
          "type": "string"
        },
        {
          "indexed": false,
          "name": "ipfsFileType",
          "type": "string"
        }
      ],
      "name": "logFileAddedStatus",
      "type": "event"
    },
    {
      "constant": false,
      "inputs": [
        {
          "name": "to",
          "type": "address"
        },
        {
          "name": "amount",
          "type": "uint256"
        }
      ],
      "name": "withdraw",
      "outputs": [],
      "payable": false,
      "stateMutability": "nonpayable",
      "type": "function"
    },
    {
      "constant": false,
      "inputs": [
        {
          "name": "firstname",
          "type": "string"
        },
        {
          "name": "lastname",
          "type": "string"
        },
        {
          "name": "email",
          "type": "string"
        },
        {
          "name": "fileHash",
          "type": "string"
        },
        {
          "name": "ipfsHash",
          "type": "string"
        },
        {
          "name": "ipfsFileType",
          "type": "string"
        }
      ],
      "name": "setFile",
      "outputs": [],
      "payable": true,
      "stateMutability": "payable",
      "type": "function"
    },
    {
      "constant": false,
      "inputs": [
        {
          "name": "firstname",
          "type": "string"
        },
        {
          "name": "lastname",
          "type": "string"
        },
        {
          "name": "email",
          "type": "string"
        },
        {
          "name": "fileHash",
          "type": "string"
        }
      ],
      "name": "addOwner",
      "outputs": [],
      "payable": true,
      "stateMutability": "payable",
      "type": "function"
    },
    {
      "constant": false,
      "inputs": [
        {
          "name": "fileHash",
          "type": "string"
        },
        {
          "name": "ownerNumber",
          "type": "uint256"
        }
      ],
      "name": "removeOwner",
      "outputs": [],
      "payable": true,
      "stateMutability": "payable",
      "type": "function"
    },
    {
      "constant": true,
      "inputs": [
        {
          "name": "fileHash",
          "type": "string"
        }
      ],
      "name": "getFile",
      "outputs": [
        {
          "name": "timestamp",
          "type": "uint256"
        },
        {
          "name": "ipfsHash",
          "type": "string"
        },
        {
          "name": "ipfsFileType",
          "type": "string"
        },
        {
          "name": "ownerNumbers",
          "type": "uint256"
        },
        {
          "name": "firstname",
          "type": "string"
        },
        {
          "name": "lastname",
          "type": "string"
        },
        {
          "name": "email",
          "type": "string"
        }
      ],
      "payable": false,
      "stateMutability": "view",
      "type": "function"
    },
    {
      "constant": true,
      "inputs": [
        {
          "name": "fileHash",
          "type": "string"
        },
        {
          "name": "ownerNumber",
          "type": "uint256"
        }
      ],
      "name": "getFileOwner",
      "outputs": [
        {
          "name": "ownerFirstName",
          "type": "string"
        },
        {
          "name": "ownerLastName",
          "type": "string"
        },
        {
          "name": "ownerEmail",
          "type": "string"
        }
      ],
      "payable": false,
      "stateMutability": "view",
      "type": "function"
    }
  ],
  "bytecode": "0x608060405234801561001057600080fd5b50336000806101000a81548173ffffffffffffffffffffffffffffffffffffffff021916908373ffffffffffffffffffffffffffffffffffffffff160217905550612db7806100606000396000f300608060405260043610610078576000357c0100000000000000000000000000000000000000000000000000000000900463ffffffff1680631fb54cea1461007a5780634efb8a4b14610234578063aac3b6c31461029a578063cc261e68146103c8578063e0876aa81461058c578063f3fef3a31461082c575b005b610232600480360381019080803590602001908201803590602001908080601f0160208091040260200160405190810160405280939291908181526020018383808284378201915050505050509192919290803590602001908201803590602001908080601f0160208091040260200160405190810160405280939291908181526020018383808284378201915050505050509192919290803590602001908201803590602001908080601f0160208091040260200160405190810160405280939291908181526020018383808284378201915050505050509192919290803590602001908201803590602001908080601f0160208091040260200160405190810160405280939291908181526020018383808284378201915050505050509192919290803590602001908201803590602001908080601f0160208091040260200160405190810160405280939291908181526020018383808284378201915050505050509192919290803590602001908201803590602001908080601f0160208091040260200160405190810160405280939291908181526020018383808284378201915050505050509192919290505050610879565b005b610298600480360381019080803590602001908201803590602001908080601f0160208091040260200160405190810160405280939291908181526020018383808284378201915050505050509192919290803590602001909291905050506110e5565b005b6103c6600480360381019080803590602001908201803590602001908080601f0160208091040260200160405190810160405280939291908181526020018383808284378201915050505050509192919290803590602001908201803590602001908080601f0160208091040260200160405190810160405280939291908181526020018383808284378201915050505050509192919290803590602001908201803590602001908080601f0160208091040260200160405190810160405280939291908181526020018383808284378201915050505050509192919290803590602001908201803590602001908080601f0160208091040260200160405190810160405280939291908181526020018383808284378201915050505050509192919290505050611e4a565b005b3480156103d457600080fd5b50610439600480360381019080803590602001908201803590602001908080601f016020809104026020016040519081016040528093929190818152602001838380828437820191505050505050919291929080359060200190929190505050612180565b60405180806020018060200180602001848103845287818151815260200191508051906020019080838360005b83811015610481578082015181840152602081019050610466565b50505050905090810190601f1680156104ae5780820380516001836020036101000a031916815260200191505b50848103835286818151815260200191508051906020019080838360005b838110156104e75780820151818401526020810190506104cc565b50505050905090810190601f1680156105145780820380516001836020036101000a031916815260200191505b50848103825285818151815260200191508051906020019080838360005b8381101561054d578082015181840152602081019050610532565b50505050905090810190601f16801561057a5780820380516001836020036101000a031916815260200191505b50965050505050505060405180910390f35b34801561059857600080fd5b506105f3600480360381019080803590602001908201803590602001908080601f01602080910402602001604051908101604052809392919081815260200183838082843782019150505050505091929192905050506124e3565b60405180888152602001806020018060200187815260200180602001806020018060200186810386528c818151815260200191508051906020019080838360005b8381101561064f578082015181840152602081019050610634565b50505050905090810190601f16801561067c5780820380516001836020036101000a031916815260200191505b5086810385528b818151815260200191508051906020019080838360005b838110156106b557808201518184015260208101905061069a565b50505050905090810190601f1680156106e25780820380516001836020036101000a031916815260200191505b50868103845289818151815260200191508051906020019080838360005b8381101561071b578082015181840152602081019050610700565b50505050905090810190601f1680156107485780820380516001836020036101000a031916815260200191505b50868103835288818151815260200191508051906020019080838360005b83811015610781578082015181840152602081019050610766565b50505050905090810190601f1680156107ae5780820380516001836020036101000a031916815260200191505b50868103825287818151815260200191508051906020019080838360005b838110156107e75780820151818401526020810190506107cc565b50505050905090810190601f1680156108145780820380516001836020036101000a031916815260200191505b509c5050505050505050505050505060405180910390f35b34801561083857600080fd5b50610877600480360381019080803573ffffffffffffffffffffffffffffffffffffffff16906020019092919080359060200190929190505050612b4b565b005b60003411151561088857600080fd5b60006002846040518082805190602001908083835b6020831015156108c2578051825260208201915060208101905060208303925061089d565b6001836020036101000a0380198251168184511680821785525050505050509050019150509081526020016040518091039020600001541415610e0a57606060405190810160405280878152602001868152602001858152506001846040518082805190602001908083835b602083101515610953578051825260208201915060208101905060208303925061092e565b6001836020036101000a0380198251168184511680821785525050505050509050019150509081526020016040518091039020600080815260200190815260200160002060008201518160000190805190602001906109b3929190612c17565b5060208201518160010190805190602001906109d0929190612c17565b5060408201518160020190805190602001906109ed929190612c17565b5090505060a060405190810160405280428152602001600081526020013373ffffffffffffffffffffffffffffffffffffffff168152602001838152602001828152506002846040518082805190602001908083835b602083101515610a685780518252602082019150602081019050602083039250610a43565b6001836020036101000a0380198251168184511680821785525050505050509050019150509081526020016040518091039020600082015181600001556020820151816001015560408201518160020160006101000a81548173ffffffffffffffffffffffffffffffffffffffff021916908373ffffffffffffffffffffffffffffffffffffffff1602179055506060820151816003019080519060200190610b12929190612c17565b506080820151816004019080519060200190610b2f929190612c17565b509050507fe05a20ec1fc8f3904651886da119ec9c016cb4246def2183f3de13f2e4eae679600142888888888888604051808915151515815260200188815260200180602001806020018060200180602001806020018060200187810387528d818151815260200191508051906020019080838360005b83811015610bc1578082015181840152602081019050610ba6565b50505050905090810190601f168015610bee5780820380516001836020036101000a031916815260200191505b5087810386528c818151815260200191508051906020019080838360005b83811015610c27578082015181840152602081019050610c0c565b50505050905090810190601f168015610c545780820380516001836020036101000a031916815260200191505b5087810385528b818151815260200191508051906020019080838360005b83811015610c8d578082015181840152602081019050610c72565b50505050905090810190601f168015610cba5780820380516001836020036101000a031916815260200191505b5087810384528a818151815260200191508051906020019080838360005b83811015610cf3578082015181840152602081019050610cd8565b50505050905090810190601f168015610d205780820380516001836020036101000a031916815260200191505b50878103835289818151815260200191508051906020019080838360005b83811015610d59578082015181840152602081019050610d3e565b50505050905090810190601f168015610d865780820380516001836020036101000a031916815260200191505b50878103825288818151815260200191508051906020019080838360005b83811015610dbf578082015181840152602081019050610da4565b50505050905090810190601f168015610dec5780820380516001836020036101000a031916815260200191505b509e50505050505050505050505050505060405180910390a16110dd565b7fe05a20ec1fc8f3904651886da119ec9c016cb4246def2183f3de13f2e4eae679600042888888888888604051808915151515815260200188815260200180602001806020018060200180602001806020018060200187810387528d818151815260200191508051906020019080838360005b83811015610e98578082015181840152602081019050610e7d565b50505050905090810190601f168015610ec55780820380516001836020036101000a031916815260200191505b5087810386528c818151815260200191508051906020019080838360005b83811015610efe578082015181840152602081019050610ee3565b50505050905090810190601f168015610f2b5780820380516001836020036101000a031916815260200191505b5087810385528b818151815260200191508051906020019080838360005b83811015610f64578082015181840152602081019050610f49565b50505050905090810190601f168015610f915780820380516001836020036101000a031916815260200191505b5087810384528a818151815260200191508051906020019080838360005b83811015610fca578082015181840152602081019050610faf565b50505050905090810190601f168015610ff75780820380516001836020036101000a031916815260200191505b50878103835289818151815260200191508051906020019080838360005b83811015611030578082015181840152602081019050611015565b50505050905090810190601f16801561105d5780820380516001836020036101000a031916815260200191505b50878103825288818151815260200191508051906020019080838360005b8381101561109657808201518184015260208101905061107b565b50505050905090810190601f1680156110c35780820380516001836020036101000a031916815260200191505b509e50505050505050505050505050505060405180910390a15b505050505050565b600080600080341115156110f857600080fd5b846002816040518082805190602001908083835b602083101515611131578051825260208201915060208101905060208303925061110c565b6001836020036101000a038019825116818451168082178552505050505050905001915050908152602001604051809103902060020160009054906101000a900473ffffffffffffffffffffffffffffffffffffffff1673ffffffffffffffffffffffffffffffffffffffff163373ffffffffffffffffffffffffffffffffffffffff161415156111c157600080fd5b6000851115156111d057600080fd5b60006002876040518082805190602001908083835b60208310151561120a57805182526020820191506020810190506020830392506111e5565b6001836020036101000a038019825116818451168082178552505050505050905001915050908152602001604051809103902060000154141515611e4257846002876040518082805190602001908083835b602083101515611281578051825260208201915060208101905060208303925061125c565b6001836020036101000a038019825116818451168082178552505050505050905001915050908152602001604051809103902060010154101515156112c557600080fd5b600093506002866040518082805190602001908083835b60208310151561130157805182526020820191506020810190506020830392506112dc565b6001836020036101000a0380198251168184511680821785525050505050509050019150509081526020016040518091039020600101549250600091505b8282111515611d04578360ff16600114156114cf576001866040518082805190602001908083835b60208310151561138c5780518252602082019150602081019050602083039250611367565b6001836020036101000a038019825116818451168082178552505050505050905001915050908152602001604051809103902060008381526020019081526020016000206001876040518082805190602001908083835b60208310151561140857805182526020820191506020810190506020830392506113e3565b6001836020036101000a0380198251168184511680821785525050505050509050019150509081526020016040518091039020600060018503815260200190815260200160002060008201816000019080546001816001161561010002031660029004611476929190612c97565b506001820181600101908054600181600116156101000203166002900461149e929190612c97565b50600282018160020190805460018160011615610100020316600290046114c6929190612c97565b50905050611cf7565b6001866040518082805190602001908083835b60208310151561150757805182526020820191506020810190506020830392506114e2565b6001836020036101000a0380198251168184511680821785525050505050509050019150509081526020016040518091039020600083815260200190815260200160002060000160405160200180828054600181600116156101000203166002900480156115ac5780601f1061158a5761010080835404028352918201916115ac565b820191906000526020600020905b815481529060010190602001808311611598575b50509150506040516020818303038152906040526040518082805190602001908083835b6020831015156115f557805182526020820191506020810190506020830392506115d0565b6001836020036101000a0380198251168184511680821785525050505050509050019150506040518091039020600019166001876040518082805190602001908083835b60208310151561165e5780518252602082019150602081019050602083039250611639565b6001836020036101000a0380198251168184511680821785525050505050509050019150509081526020016040518091039020600087815260200190815260200160002060000160405160200180828054600181600116156101000203166002900480156117035780601f106116e1576101008083540402835291820191611703565b820191906000526020600020905b8154815290600101906020018083116116ef575b50509150506040516020818303038152906040526040518082805190602001908083835b60208310151561174c5780518252602082019150602081019050602083039250611727565b6001836020036101000a038019825116818451168082178552505050505050905001915050604051809103902060001916148015611a3557506001866040518082805190602001908083835b6020831015156117bd5780518252602082019150602081019050602083039250611798565b6001836020036101000a0380198251168184511680821785525050505050509050019150509081526020016040518091039020600083815260200190815260200160002060010160405160200180828054600181600116156101000203166002900480156118625780601f10611840576101008083540402835291820191611862565b820191906000526020600020905b81548152906001019060200180831161184e575b50509150506040516020818303038152906040526040518082805190602001908083835b6020831015156118ab5780518252602082019150602081019050602083039250611886565b6001836020036101000a0380198251168184511680821785525050505050509050019150506040518091039020600019166001876040518082805190602001908083835b60208310151561191457805182526020820191506020810190506020830392506118ef565b6001836020036101000a0380198251168184511680821785525050505050509050019150509081526020016040518091039020600087815260200190815260200160002060010160405160200180828054600181600116156101000203166002900480156119b95780601f106119975761010080835404028352918201916119b9565b820191906000526020600020905b8154815290600101906020018083116119a5575b50509150506040516020818303038152906040526040518082805190602001908083835b602083101515611a0257805182526020820191506020810190506020830392506119dd565b6001836020036101000a038019825116818451168082178552505050505050905001915050604051809103902060001916145b8015611cec57506001866040518082805190602001908083835b602083101515611a745780518252602082019150602081019050602083039250611a4f565b6001836020036101000a038019825116818451168082178552505050505050905001915050908152602001604051809103902060008381526020019081526020016000206002016040516020018082805460018160011615610100020316600290048015611b195780601f10611af7576101008083540402835291820191611b19565b820191906000526020600020905b815481529060010190602001808311611b05575b50509150506040516020818303038152906040526040518082805190602001908083835b602083101515611b625780518252602082019150602081019050602083039250611b3d565b6001836020036101000a0380198251168184511680821785525050505050509050019150506040518091039020600019166001876040518082805190602001908083835b602083101515611bcb5780518252602082019150602081019050602083039250611ba6565b6001836020036101000a038019825116818451168082178552505050505050905001915050908152602001604051809103902060008781526020019081526020016000206002016040516020018082805460018160011615610100020316600290048015611c705780601f10611c4e576101008083540402835291820191611c70565b820191906000526020600020905b815481529060010190602001808311611c5c575b50509150506040516020818303038152906040526040518082805190602001908083835b602083101515611cb95780518252602082019150602081019050602083039250611c94565b6001836020036101000a038019825116818451168082178552505050505050905001915050604051809103902060001916145b15611cf657600193505b5b818060010192505061133f565b60018460ff16141515611d1357fe5b6001866040518082805190602001908083835b602083101515611d4b5780518252602082019150602081019050602083039250611d26565b6001836020036101000a0380198251168184511680821785525050505050509050019150509081526020016040518091039020600084815260200190815260200160002060008082016000611da09190612d1e565b600182016000611db09190612d1e565b600282016000611dc09190612d1e565b50506002866040518082805190602001908083835b602083101515611dfa5780518252602082019150602081019050602083039250611dd5565b6001836020036101000a038019825116818451168082178552505050505050905001915050908152602001604051809103902060010160008154809291906001900391905055505b505050505050565b600034111515611e5957600080fd5b806002816040518082805190602001908083835b602083101515611e925780518252602082019150602081019050602083039250611e6d565b6001836020036101000a038019825116818451168082178552505050505050905001915050908152602001604051809103902060020160009054906101000a900473ffffffffffffffffffffffffffffffffffffffff1673ffffffffffffffffffffffffffffffffffffffff163373ffffffffffffffffffffffffffffffffffffffff16141515611f2257600080fd5b60006002836040518082805190602001908083835b602083101515611f5c5780518252602082019150602081019050602083039250611f37565b6001836020036101000a038019825116818451168082178552505050505050905001915050908152602001604051809103902060000154141515612179576002826040518082805190602001908083835b602083101515611fd25780518252602082019150602081019050602083039250611fad565b6001836020036101000a038019825116818451168082178552505050505050905001915050908152602001604051809103902060010160008154809291906001019190505550606060405190810160405280868152602001858152602001848152506001836040518082805190602001908083835b60208310151561206c5780518252602082019150602081019050602083039250612047565b6001836020036101000a038019825116818451168082178552505050505050905001915050908152602001604051809103902060006002856040518082805190602001908083835b6020831015156120d957805182526020820191506020810190506020830392506120b4565b6001836020036101000a0380198251168184511680821785525050505050509050019150509081526020016040518091039020600101548152602001908152602001600020600082015181600001908051906020019061213a929190612c17565b506020820151816001019080519060200190612157929190612c17565b506040820151816002019080519060200190612174929190612c17565b509050505b5050505050565b60608060606001856040518082805190602001908083835b6020831015156121bd5780518252602082019150602081019050602083039250612198565b6001836020036101000a038019825116818451168082178552505050505050905001915050908152602001604051809103902060008581526020019081526020016000206000016001866040518082805190602001908083835b60208310151561223c5780518252602082019150602081019050602083039250612217565b6001836020036101000a038019825116818451168082178552505050505050905001915050908152602001604051809103902060008681526020019081526020016000206001016001876040518082805190602001908083835b6020831015156122bb5780518252602082019150602081019050602083039250612296565b6001836020036101000a03801982511681845116808217855250505050505090500191505090815260200160405180910390206000878152602001908152602001600020600201828054600181600116156101000203166002900480601f0160208091040260200160405190810160405280929190818152602001828054600181600116156101000203166002900480156123975780601f1061236c57610100808354040283529160200191612397565b820191906000526020600020905b81548152906001019060200180831161237a57829003601f168201915b50505050509250818054600181600116156101000203166002900480601f0160208091040260200160405190810160405280929190818152602001828054600181600116156101000203166002900480156124335780601f1061240857610100808354040283529160200191612433565b820191906000526020600020905b81548152906001019060200180831161241657829003601f168201915b50505050509150808054600181600116156101000203166002900480601f0160208091040260200160405190810160405280929190818152602001828054600181600116156101000203166002900480156124cf5780601f106124a4576101008083540402835291602001916124cf565b820191906000526020600020905b8154815290600101906020018083116124b257829003601f168201915b505050505090509250925092509250925092565b6000606080600060608060606002886040518082805190602001908083835b6020831015156125275780518252602082019150602081019050602083039250612502565b6001836020036101000a0380198251168184511680821785525050505050509050019150509081526020016040518091039020600001546002896040518082805190602001908083835b6020831015156125965780518252602082019150602081019050602083039250612571565b6001836020036101000a038019825116818451168082178552505050505050905001915050908152602001604051809103902060030160028a6040518082805190602001908083835b60208310151561260457805182526020820191506020810190506020830392506125df565b6001836020036101000a038019825116818451168082178552505050505050905001915050908152602001604051809103902060040160028b6040518082805190602001908083835b602083101515612672578051825260208201915060208101905060208303925061264d565b6001836020036101000a03801982511681845116808217855250505050505090500191505090815260200160405180910390206001015460018c6040518082805190602001908083835b6020831015156126e157805182526020820191506020810190506020830392506126bc565b6001836020036101000a0380198251168184511680821785525050505050509050019150509081526020016040518091039020600080815260200190815260200160002060000160018d6040518082805190602001908083835b602083101515612760578051825260208201915060208101905060208303925061273b565b6001836020036101000a0380198251168184511680821785525050505050509050019150509081526020016040518091039020600080815260200190815260200160002060010160018e6040518082805190602001908083835b6020831015156127df57805182526020820191506020810190506020830392506127ba565b6001836020036101000a03801982511681845116808217855250505050505090500191505090815260200160405180910390206000808152602001908152602001600020600201858054600181600116156101000203166002900480601f0160208091040260200160405190810160405280929190818152602001828054600181600116156101000203166002900480156128bb5780601f10612890576101008083540402835291602001916128bb565b820191906000526020600020905b81548152906001019060200180831161289e57829003601f168201915b50505050509550848054600181600116156101000203166002900480601f0160208091040260200160405190810160405280929190818152602001828054600181600116156101000203166002900480156129575780601f1061292c57610100808354040283529160200191612957565b820191906000526020600020905b81548152906001019060200180831161293a57829003601f168201915b50505050509450828054600181600116156101000203166002900480601f0160208091040260200160405190810160405280929190818152602001828054600181600116156101000203166002900480156129f35780601f106129c8576101008083540402835291602001916129f3565b820191906000526020600020905b8154815290600101906020018083116129d657829003601f168201915b50505050509250818054600181600116156101000203166002900480601f016020809104026020016040519081016040528092919081815260200182805460018160011615610100020316600290048015612a8f5780601f10612a6457610100808354040283529160200191612a8f565b820191906000526020600020905b815481529060010190602001808311612a7257829003601f168201915b50505050509150808054600181600116156101000203166002900480601f016020809104026020016040519081016040528092919081815260200182805460018160011615610100020316600290048015612b2b5780601f10612b0057610100808354040283529160200191612b2b565b820191906000526020600020905b815481529060010190602001808311612b0e57829003601f168201915b505050505090509650965096509650965096509650919395979092949650565b6000809054906101000a900473ffffffffffffffffffffffffffffffffffffffff1673ffffffffffffffffffffffffffffffffffffffff163373ffffffffffffffffffffffffffffffffffffffff16141515612ba657600080fd5b803073ffffffffffffffffffffffffffffffffffffffff163110151515612bcc57600080fd5b8173ffffffffffffffffffffffffffffffffffffffff166108fc829081150290604051600060405180830381858888f19350505050158015612c12573d6000803e3d6000fd5b505050565b828054600181600116156101000203166002900490600052602060002090601f016020900481019282601f10612c5857805160ff1916838001178555612c86565b82800160010185558215612c86579182015b82811115612c85578251825591602001919060010190612c6a565b5b509050612c939190612d66565b5090565b828054600181600116156101000203166002900490600052602060002090601f016020900481019282601f10612cd05780548555612d0d565b82800160010185558215612d0d57600052602060002091601f016020900482015b82811115612d0c578254825591600101919060010190612cf1565b5b509050612d1a9190612d66565b5090565b50805460018160011615610100020316600290046000825580601f10612d445750612d63565b601f016020900490600052602060002090810190612d629190612d66565b5b50565b612d8891905b80821115612d84576000816000905550600101612d6c565b5090565b905600a165627a7a72305820165bb1cdc13b33ffff8e4028cc8494eb2dd6828f34c0c5a84c0713e023a8c1a00029",
  "source": "pragma solidity ^0.4.24;\r\n\r\ncontract Proof\r\n{\r\n    address private _owner;\r\n\r\n    struct OwnerDetails {\r\n        string firstname;\r\n        string lastname;\r\n        string email;\r\n    }\r\n\r\n    mapping(string => mapping(uint => OwnerDetails)) _owners;\r\n\r\n    struct FileDetails {\r\n        uint timestamp;\r\n        uint ownerNumbers;\r\n        address mainOwner;\r\n        string ipfsHash;\r\n        string ipfsFileType;\r\n    }\r\n\r\n    mapping(string => FileDetails) _files;\r\n\r\n    modifier validOwner() {\r\n        require(msg.sender == _owner);\r\n        _;\r\n    }\r\n\r\n    modifier validValue() {\r\n        require(msg.value > 0);\r\n        _;\r\n    }\r\n\r\n    modifier validMainFileOwner(string fileHash) {\r\n        require(msg.sender == _files[fileHash].mainOwner);\r\n        _;\r\n    }\r\n\r\n    event logFileAddedStatus(bool status, uint timestamp, string firstname, string lastname, string email, string fileHash, string ipfsHash, string ipfsFileType);\r\n\r\n    constructor() public {\r\n        _owner = msg.sender;\r\n    }\r\n\r\n    function() public payable {}\r\n\r\n    function withdraw(address to, uint amount) validOwner public {\r\n        require(address(this).balance >= amount);\r\n        to.transfer(amount);\r\n    }\r\n\r\n    function setFile(string firstname, string lastname, string email, string fileHash, string ipfsHash, string ipfsFileType) validValue public payable {\r\n        if (_files[fileHash].timestamp == 0) {\r\n            _owners[fileHash][0] = OwnerDetails(firstname, lastname, email);\r\n            _files[fileHash] = FileDetails(block.timestamp, 0, msg.sender, ipfsHash, ipfsFileType);\r\n            emit logFileAddedStatus(true, block.timestamp, firstname, lastname, email, fileHash, ipfsHash, ipfsFileType);\r\n        }\r\n        else {\r\n            emit logFileAddedStatus(false, block.timestamp, firstname, lastname, email, fileHash, ipfsHash, ipfsFileType);\r\n        }\r\n    }\r\n\r\n    function addOwner(string firstname, string lastname, string email, string fileHash) validValue validMainFileOwner(fileHash) public payable {\r\n        if (_files[fileHash].timestamp != 0) {\r\n            _files[fileHash].ownerNumbers++;\r\n            _owners[fileHash][_files[fileHash].ownerNumbers] = OwnerDetails(firstname, lastname, email);\r\n        }\r\n    }\r\n\r\n    function removeOwner(string fileHash, uint ownerNumber) validValue validMainFileOwner(fileHash) public payable {\r\n        require(ownerNumber > 0);\r\n        if (_files[fileHash].timestamp != 0) {\r\n            require(_files[fileHash].ownerNumbers >= ownerNumber);\r\n            uint8 replace = 0;\r\n            uint length = _files[fileHash].ownerNumbers;\r\n            for(uint i = 0; i <= length; i++) {\r\n                if (1 == replace) {\r\n                    _owners[fileHash][i-1] = _owners[fileHash][i];\r\n                } else if (keccak256(abi.encodePacked(_owners[fileHash][ownerNumber].firstname)) == keccak256(abi.encodePacked(_owners[fileHash][i].firstname))\r\n                && keccak256(abi.encodePacked(_owners[fileHash][ownerNumber].lastname)) == keccak256(abi.encodePacked(_owners[fileHash][i].lastname))\r\n                && keccak256(abi.encodePacked(_owners[fileHash][ownerNumber].email)) == keccak256(abi.encodePacked(_owners[fileHash][i].email))) {\r\n                    replace = 1;\r\n                }\r\n            }\r\n            assert(replace == 1);\r\n            delete _owners[fileHash][length];\r\n            _files[fileHash].ownerNumbers--;\r\n        }\r\n    }\r\n\r\n    function getFile(string fileHash) public constant returns (uint timestamp, string ipfsHash, string ipfsFileType, uint ownerNumbers, string firstname, string lastname, string email) {\r\n        return (_files[fileHash].timestamp, _files[fileHash].ipfsHash, _files[fileHash].ipfsFileType, _files[fileHash].ownerNumbers, _owners[fileHash][0].firstname, _owners[fileHash][0].lastname, _owners[fileHash][0].email);\r\n    }\r\n\r\n    function getFileOwner(string fileHash, uint ownerNumber) public constant returns (string ownerFirstName, string ownerLastName, string ownerEmail) {\r\n        return (_owners[fileHash][ownerNumber].firstname, _owners[fileHash][ownerNumber].lastname, _owners[fileHash][ownerNumber].email);\r\n    }\r\n\r\n}\r\n",
  "sourcePath": "E:\\EthereumContracts\\contracts\\Proof.sol",
  "compiler": {
    "name": "solc",
    "version": "0.4.24+commit.e67f0147.Emscripten.clang"
  },
  "schemaVersion": "2.0.1",
  "updatedAt": "2018-10-08T20:48:40.423Z"
}