{
  "contractName": "Proof",
  "abi": [
    {
      "inputs": [],
      "payable": false,
      "stateMutability": "nonpayable",
      "type": "constructor"
    },
    {
      "payable": true,
      "stateMutability": "payable",
      "type": "fallback"
    },
    {
      "anonymous": false,
      "inputs": [
        {
          "indexed": false,
          "name": "status",
          "type": "bool"
        },
        {
          "indexed": false,
          "name": "timestamp",
          "type": "uint256"
        },
        {
          "indexed": false,
          "name": "firstname",
          "type": "string"
        },
        {
          "indexed": false,
          "name": "lastname",
          "type": "string"
        },
        {
          "indexed": false,
          "name": "email",
          "type": "string"
        },
        {
          "indexed": false,
          "name": "fileHash",
          "type": "string"
        },
        {
          "indexed": false,
          "name": "ipfsHash",
          "type": "string"
        },
        {
          "indexed": false,
          "name": "ipfsFileType",
          "type": "string"
        }
      ],
      "name": "logFileAddedStatus",
      "type": "event"
    },
    {
      "constant": false,
      "inputs": [
        {
          "name": "to",
          "type": "address"
        },
        {
          "name": "amount",
          "type": "uint256"
        }
      ],
      "name": "withdraw",
      "outputs": [],
      "payable": false,
      "stateMutability": "nonpayable",
      "type": "function"
    },
    {
      "constant": false,
      "inputs": [
        {
          "name": "firstname",
          "type": "string"
        },
        {
          "name": "lastname",
          "type": "string"
        },
        {
          "name": "email",
          "type": "string"
        },
        {
          "name": "fileHash",
          "type": "string"
        },
        {
          "name": "ipfsHash",
          "type": "string"
        },
        {
          "name": "ipfsFileType",
          "type": "string"
        },
        {
          "name": "comments",
          "type": "string"
        }
      ],
      "name": "setFile",
      "outputs": [],
      "payable": true,
      "stateMutability": "payable",
      "type": "function"
    },
    {
      "constant": false,
      "inputs": [
        {
          "name": "firstname",
          "type": "string"
        },
        {
          "name": "lastname",
          "type": "string"
        },
        {
          "name": "email",
          "type": "string"
        },
        {
          "name": "fileHash",
          "type": "string"
        }
      ],
      "name": "addOwner",
      "outputs": [],
      "payable": true,
      "stateMutability": "payable",
      "type": "function"
    },
    {
      "constant": false,
      "inputs": [
        {
          "name": "fileHash",
          "type": "string"
        },
        {
          "name": "ownerNumber",
          "type": "uint256"
        }
      ],
      "name": "removeOwner",
      "outputs": [],
      "payable": true,
      "stateMutability": "payable",
      "type": "function"
    },
    {
      "constant": true,
      "inputs": [
        {
          "name": "fileHash",
          "type": "string"
        }
      ],
      "name": "getFile",
      "outputs": [
        {
          "name": "timestamp",
          "type": "uint256"
        },
        {
          "name": "blockNumber",
          "type": "uint256"
        },
        {
          "name": "ipfsHash",
          "type": "string"
        },
        {
          "name": "ipfsFileType",
          "type": "string"
        },
        {
          "name": "ownerNumbers",
          "type": "uint256"
        },
        {
          "name": "firstname",
          "type": "string"
        },
        {
          "name": "lastname",
          "type": "string"
        },
        {
          "name": "email",
          "type": "string"
        },
        {
          "name": "comments",
          "type": "string"
        }
      ],
      "payable": false,
      "stateMutability": "view",
      "type": "function"
    },
    {
      "constant": true,
      "inputs": [
        {
          "name": "fileHash",
          "type": "string"
        },
        {
          "name": "ownerNumber",
          "type": "uint256"
        }
      ],
      "name": "getFileOwner",
      "outputs": [
        {
          "name": "ownerFirstName",
          "type": "string"
        },
        {
          "name": "ownerLastName",
          "type": "string"
        },
        {
          "name": "ownerEmail",
          "type": "string"
        }
      ],
      "payable": false,
      "stateMutability": "view",
      "type": "function"
    }
  ],
  "bytecode": "0x608060405234801561001057600080fd5b50336000806101000a81548173ffffffffffffffffffffffffffffffffffffffff021916908373ffffffffffffffffffffffffffffffffffffffff160217905550612e89806100606000396000f300608060405260043610610078576000357c0100000000000000000000000000000000000000000000000000000000900463ffffffff1680631ec7d46f1461007a5780634efb8a4b1461027a578063aac3b6c3146102e0578063cc261e681461040e578063e0876aa8146105d2578063f3fef3a3146108e5575b005b610278600480360381019080803590602001908201803590602001908080601f0160208091040260200160405190810160405280939291908181526020018383808284378201915050505050509192919290803590602001908201803590602001908080601f0160208091040260200160405190810160405280939291908181526020018383808284378201915050505050509192919290803590602001908201803590602001908080601f0160208091040260200160405190810160405280939291908181526020018383808284378201915050505050509192919290803590602001908201803590602001908080601f0160208091040260200160405190810160405280939291908181526020018383808284378201915050505050509192919290803590602001908201803590602001908080601f0160208091040260200160405190810160405280939291908181526020018383808284378201915050505050509192919290803590602001908201803590602001908080601f0160208091040260200160405190810160405280939291908181526020018383808284378201915050505050509192919290803590602001908201803590602001908080601f0160208091040260200160405190810160405280939291908181526020018383808284378201915050505050509192919290505050610932565b005b6102de600480360381019080803590602001908201803590602001908080601f0160208091040260200160405190810160405280939291908181526020018383808284378201915050505050509192919290803590602001909291905050506111d9565b005b61040c600480360381019080803590602001908201803590602001908080601f0160208091040260200160405190810160405280939291908181526020018383808284378201915050505050509192919290803590602001908201803590602001908080601f0160208091040260200160405190810160405280939291908181526020018383808284378201915050505050509192919290803590602001908201803590602001908080601f0160208091040260200160405190810160405280939291908181526020018383808284378201915050505050509192919290803590602001908201803590602001908080601f0160208091040260200160405190810160405280939291908181526020018383808284378201915050505050509192919290505050611f46565b005b34801561041a57600080fd5b5061047f600480360381019080803590602001908201803590602001908080601f016020809104026020016040519081016040528093929190818152602001838380828437820191505050505050919291929080359060200190929190505050612283565b60405180806020018060200180602001848103845287818151815260200191508051906020019080838360005b838110156104c75780820151818401526020810190506104ac565b50505050905090810190601f1680156104f45780820380516001836020036101000a031916815260200191505b50848103835286818151815260200191508051906020019080838360005b8381101561052d578082015181840152602081019050610512565b50505050905090810190601f16801561055a5780820380516001836020036101000a031916815260200191505b50848103825285818151815260200191508051906020019080838360005b83811015610593578082015181840152602081019050610578565b50505050905090810190601f1680156105c05780820380516001836020036101000a031916815260200191505b50965050505050505060405180910390f35b3480156105de57600080fd5b50610639600480360381019080803590602001908201803590602001908080601f01602080910402602001604051908101604052809392919081815260200183838082843782019150505050505091929192905050506125e6565b604051808a815260200189815260200180602001806020018881526020018060200180602001806020018060200187810387528e818151815260200191508051906020019080838360005b8381101561069f578082015181840152602081019050610684565b50505050905090810190601f1680156106cc5780820380516001836020036101000a031916815260200191505b5087810386528d818151815260200191508051906020019080838360005b838110156107055780820151818401526020810190506106ea565b50505050905090810190601f1680156107325780820380516001836020036101000a031916815260200191505b5087810385528b818151815260200191508051906020019080838360005b8381101561076b578082015181840152602081019050610750565b50505050905090810190601f1680156107985780820380516001836020036101000a031916815260200191505b5087810384528a818151815260200191508051906020019080838360005b838110156107d15780820151818401526020810190506107b6565b50505050905090810190601f1680156107fe5780820380516001836020036101000a031916815260200191505b50878103835289818151815260200191508051906020019080838360005b8381101561083757808201518184015260208101905061081c565b50505050905090810190601f1680156108645780820380516001836020036101000a031916815260200191505b50878103825288818151815260200191508051906020019080838360005b8381101561089d578082015181840152602081019050610882565b50505050905090810190601f1680156108ca5780820380516001836020036101000a031916815260200191505b509f5050505050505050505050505050505060405180910390f35b3480156108f157600080fd5b50610930600480360381019080803573ffffffffffffffffffffffffffffffffffffffff16906020019092919080359060200190929190505050612ba7565b005b6611c37937e08000341015151561094857600080fd5b60006002856040518082805190602001908083835b602083101515610982578051825260208201915060208101905060208303925061095d565b6001836020036101000a0380198251168184511680821785525050505050509050019150509081526020016040518091039020600001541415610efd57606060405190810160405280888152602001878152602001868152506001856040518082805190602001908083835b602083101515610a1357805182526020820191506020810190506020830392506109ee565b6001836020036101000a038019825116818451168082178552505050505050905001915050908152602001604051809103902060008081526020019081526020016000206000820151816000019080519060200190610a73929190612c73565b506020820151816001019080519060200190610a90929190612c73565b506040820151816002019080519060200190610aad929190612c73565b5090505060e060405190810160405280428152602001438152602001600081526020013373ffffffffffffffffffffffffffffffffffffffff168152602001848152602001838152602001828152506002856040518082805190602001908083835b602083101515610b345780518252602082019150602081019050602083039250610b0f565b6001836020036101000a038019825116818451168082178552505050505050905001915050908152602001604051809103902060008201518160000155602082015181600101556040820151816002015560608201518160030160006101000a81548173ffffffffffffffffffffffffffffffffffffffff021916908373ffffffffffffffffffffffffffffffffffffffff1602179055506080820151816004019080519060200190610be8929190612c73565b5060a0820151816005019080519060200190610c05929190612c73565b5060c0820151816006019080519060200190610c22929190612c73565b509050507fe05a20ec1fc8f3904651886da119ec9c016cb4246def2183f3de13f2e4eae679600142898989898989604051808915151515815260200188815260200180602001806020018060200180602001806020018060200187810387528d818151815260200191508051906020019080838360005b83811015610cb4578082015181840152602081019050610c99565b50505050905090810190601f168015610ce15780820380516001836020036101000a031916815260200191505b5087810386528c818151815260200191508051906020019080838360005b83811015610d1a578082015181840152602081019050610cff565b50505050905090810190601f168015610d475780820380516001836020036101000a031916815260200191505b5087810385528b818151815260200191508051906020019080838360005b83811015610d80578082015181840152602081019050610d65565b50505050905090810190601f168015610dad5780820380516001836020036101000a031916815260200191505b5087810384528a818151815260200191508051906020019080838360005b83811015610de6578082015181840152602081019050610dcb565b50505050905090810190601f168015610e135780820380516001836020036101000a031916815260200191505b50878103835289818151815260200191508051906020019080838360005b83811015610e4c578082015181840152602081019050610e31565b50505050905090810190601f168015610e795780820380516001836020036101000a031916815260200191505b50878103825288818151815260200191508051906020019080838360005b83811015610eb2578082015181840152602081019050610e97565b50505050905090810190601f168015610edf5780820380516001836020036101000a031916815260200191505b509e50505050505050505050505050505060405180910390a16111d0565b7fe05a20ec1fc8f3904651886da119ec9c016cb4246def2183f3de13f2e4eae679600042898989898989604051808915151515815260200188815260200180602001806020018060200180602001806020018060200187810387528d818151815260200191508051906020019080838360005b83811015610f8b578082015181840152602081019050610f70565b50505050905090810190601f168015610fb85780820380516001836020036101000a031916815260200191505b5087810386528c818151815260200191508051906020019080838360005b83811015610ff1578082015181840152602081019050610fd6565b50505050905090810190601f16801561101e5780820380516001836020036101000a031916815260200191505b5087810385528b818151815260200191508051906020019080838360005b8381101561105757808201518184015260208101905061103c565b50505050905090810190601f1680156110845780820380516001836020036101000a031916815260200191505b5087810384528a818151815260200191508051906020019080838360005b838110156110bd5780820151818401526020810190506110a2565b50505050905090810190601f1680156110ea5780820380516001836020036101000a031916815260200191505b50878103835289818151815260200191508051906020019080838360005b83811015611123578082015181840152602081019050611108565b50505050905090810190601f1680156111505780820380516001836020036101000a031916815260200191505b50878103825288818151815260200191508051906020019080838360005b8381101561118957808201518184015260208101905061116e565b50505050905090810190601f1680156111b65780820380516001836020036101000a031916815260200191505b509e50505050505050505050505050505060405180910390a15b50505050505050565b60008060006611c37937e0800034101515156111f457600080fd5b846002816040518082805190602001908083835b60208310151561122d5780518252602082019150602081019050602083039250611208565b6001836020036101000a038019825116818451168082178552505050505050905001915050908152602001604051809103902060030160009054906101000a900473ffffffffffffffffffffffffffffffffffffffff1673ffffffffffffffffffffffffffffffffffffffff163373ffffffffffffffffffffffffffffffffffffffff161415156112bd57600080fd5b6000851115156112cc57600080fd5b60006002876040518082805190602001908083835b60208310151561130657805182526020820191506020810190506020830392506112e1565b6001836020036101000a038019825116818451168082178552505050505050905001915050908152602001604051809103902060000154141515611f3e57846002876040518082805190602001908083835b60208310151561137d5780518252602082019150602081019050602083039250611358565b6001836020036101000a038019825116818451168082178552505050505050905001915050908152602001604051809103902060020154101515156113c157600080fd5b600093506002866040518082805190602001908083835b6020831015156113fd57805182526020820191506020810190506020830392506113d8565b6001836020036101000a0380198251168184511680821785525050505050509050019150509081526020016040518091039020600201549250600091505b8282111515611e00578360ff16600114156115cb576001866040518082805190602001908083835b6020831015156114885780518252602082019150602081019050602083039250611463565b6001836020036101000a038019825116818451168082178552505050505050905001915050908152602001604051809103902060008381526020019081526020016000206001876040518082805190602001908083835b60208310151561150457805182526020820191506020810190506020830392506114df565b6001836020036101000a0380198251168184511680821785525050505050509050019150509081526020016040518091039020600060018503815260200190815260200160002060008201816000019080546001816001161561010002031660029004611572929190612cf3565b506001820181600101908054600181600116156101000203166002900461159a929190612cf3565b50600282018160020190805460018160011615610100020316600290046115c2929190612cf3565b50905050611df3565b6001866040518082805190602001908083835b60208310151561160357805182526020820191506020810190506020830392506115de565b6001836020036101000a0380198251168184511680821785525050505050509050019150509081526020016040518091039020600083815260200190815260200160002060000160405160200180828054600181600116156101000203166002900480156116a85780601f106116865761010080835404028352918201916116a8565b820191906000526020600020905b815481529060010190602001808311611694575b50509150506040516020818303038152906040526040518082805190602001908083835b6020831015156116f157805182526020820191506020810190506020830392506116cc565b6001836020036101000a0380198251168184511680821785525050505050509050019150506040518091039020600019166001876040518082805190602001908083835b60208310151561175a5780518252602082019150602081019050602083039250611735565b6001836020036101000a0380198251168184511680821785525050505050509050019150509081526020016040518091039020600087815260200190815260200160002060000160405160200180828054600181600116156101000203166002900480156117ff5780601f106117dd5761010080835404028352918201916117ff565b820191906000526020600020905b8154815290600101906020018083116117eb575b50509150506040516020818303038152906040526040518082805190602001908083835b6020831015156118485780518252602082019150602081019050602083039250611823565b6001836020036101000a038019825116818451168082178552505050505050905001915050604051809103902060001916148015611b3157506001866040518082805190602001908083835b6020831015156118b95780518252602082019150602081019050602083039250611894565b6001836020036101000a03801982511681845116808217855250505050505090500191505090815260200160405180910390206000838152602001908152602001600020600101604051602001808280546001816001161561010002031660029004801561195e5780601f1061193c57610100808354040283529182019161195e565b820191906000526020600020905b81548152906001019060200180831161194a575b50509150506040516020818303038152906040526040518082805190602001908083835b6020831015156119a75780518252602082019150602081019050602083039250611982565b6001836020036101000a0380198251168184511680821785525050505050509050019150506040518091039020600019166001876040518082805190602001908083835b602083101515611a1057805182526020820191506020810190506020830392506119eb565b6001836020036101000a038019825116818451168082178552505050505050905001915050908152602001604051809103902060008781526020019081526020016000206001016040516020018082805460018160011615610100020316600290048015611ab55780601f10611a93576101008083540402835291820191611ab5565b820191906000526020600020905b815481529060010190602001808311611aa1575b50509150506040516020818303038152906040526040518082805190602001908083835b602083101515611afe5780518252602082019150602081019050602083039250611ad9565b6001836020036101000a038019825116818451168082178552505050505050905001915050604051809103902060001916145b8015611de857506001866040518082805190602001908083835b602083101515611b705780518252602082019150602081019050602083039250611b4b565b6001836020036101000a038019825116818451168082178552505050505050905001915050908152602001604051809103902060008381526020019081526020016000206002016040516020018082805460018160011615610100020316600290048015611c155780601f10611bf3576101008083540402835291820191611c15565b820191906000526020600020905b815481529060010190602001808311611c01575b50509150506040516020818303038152906040526040518082805190602001908083835b602083101515611c5e5780518252602082019150602081019050602083039250611c39565b6001836020036101000a0380198251168184511680821785525050505050509050019150506040518091039020600019166001876040518082805190602001908083835b602083101515611cc75780518252602082019150602081019050602083039250611ca2565b6001836020036101000a038019825116818451168082178552505050505050905001915050908152602001604051809103902060008781526020019081526020016000206002016040516020018082805460018160011615610100020316600290048015611d6c5780601f10611d4a576101008083540402835291820191611d6c565b820191906000526020600020905b815481529060010190602001808311611d58575b50509150506040516020818303038152906040526040518082805190602001908083835b602083101515611db55780518252602082019150602081019050602083039250611d90565b6001836020036101000a038019825116818451168082178552505050505050905001915050604051809103902060001916145b15611df257600193505b5b818060010192505061143b565b60018460ff16141515611e0f57fe5b6001866040518082805190602001908083835b602083101515611e475780518252602082019150602081019050602083039250611e22565b6001836020036101000a0380198251168184511680821785525050505050509050019150509081526020016040518091039020600084815260200190815260200160002060008082016000611e9c9190612d7a565b600182016000611eac9190612d7a565b600282016000611ebc9190612d7a565b50506002866040518082805190602001908083835b602083101515611ef65780518252602082019150602081019050602083039250611ed1565b6001836020036101000a038019825116818451168082178552505050505050905001915050908152602001604051809103902060020160008154809291906001900391905055505b505050505050565b6611c37937e080003410151515611f5c57600080fd5b806002816040518082805190602001908083835b602083101515611f955780518252602082019150602081019050602083039250611f70565b6001836020036101000a038019825116818451168082178552505050505050905001915050908152602001604051809103902060030160009054906101000a900473ffffffffffffffffffffffffffffffffffffffff1673ffffffffffffffffffffffffffffffffffffffff163373ffffffffffffffffffffffffffffffffffffffff1614151561202557600080fd5b60006002836040518082805190602001908083835b60208310151561205f578051825260208201915060208101905060208303925061203a565b6001836020036101000a03801982511681845116808217855250505050505090500191505090815260200160405180910390206000015414151561227c576002826040518082805190602001908083835b6020831015156120d557805182526020820191506020810190506020830392506120b0565b6001836020036101000a038019825116818451168082178552505050505050905001915050908152602001604051809103902060020160008154809291906001019190505550606060405190810160405280868152602001858152602001848152506001836040518082805190602001908083835b60208310151561216f578051825260208201915060208101905060208303925061214a565b6001836020036101000a038019825116818451168082178552505050505050905001915050908152602001604051809103902060006002856040518082805190602001908083835b6020831015156121dc57805182526020820191506020810190506020830392506121b7565b6001836020036101000a0380198251168184511680821785525050505050509050019150509081526020016040518091039020600201548152602001908152602001600020600082015181600001908051906020019061223d929190612c73565b50602082015181600101908051906020019061225a929190612c73565b506040820151816002019080519060200190612277929190612c73565b509050505b5050505050565b60608060606001856040518082805190602001908083835b6020831015156122c0578051825260208201915060208101905060208303925061229b565b6001836020036101000a038019825116818451168082178552505050505050905001915050908152602001604051809103902060008581526020019081526020016000206000016001866040518082805190602001908083835b60208310151561233f578051825260208201915060208101905060208303925061231a565b6001836020036101000a038019825116818451168082178552505050505050905001915050908152602001604051809103902060008681526020019081526020016000206001016001876040518082805190602001908083835b6020831015156123be5780518252602082019150602081019050602083039250612399565b6001836020036101000a03801982511681845116808217855250505050505090500191505090815260200160405180910390206000878152602001908152602001600020600201828054600181600116156101000203166002900480601f01602080910402602001604051908101604052809291908181526020018280546001816001161561010002031660029004801561249a5780601f1061246f5761010080835404028352916020019161249a565b820191906000526020600020905b81548152906001019060200180831161247d57829003601f168201915b50505050509250818054600181600116156101000203166002900480601f0160208091040260200160405190810160405280929190818152602001828054600181600116156101000203166002900480156125365780601f1061250b57610100808354040283529160200191612536565b820191906000526020600020905b81548152906001019060200180831161251957829003601f168201915b50505050509150808054600181600116156101000203166002900480601f0160208091040260200160405190810160405280929190818152602001828054600181600116156101000203166002900480156125d25780601f106125a7576101008083540402835291602001916125d2565b820191906000526020600020905b8154815290600101906020018083116125b557829003601f168201915b505050505090509250925092509250925092565b60008060608060006060806060806125fc612dc2565b612604612e16565b60028c6040518082805190602001908083835b60208310151561263c5780518252602082019150602081019050602083039250612617565b6001836020036101000a038019825116818451168082178552505050505050905001915050908152602001604051809103902060e060405190810160405290816000820154815260200160018201548152602001600282015481526020016003820160009054906101000a900473ffffffffffffffffffffffffffffffffffffffff1673ffffffffffffffffffffffffffffffffffffffff1673ffffffffffffffffffffffffffffffffffffffff168152602001600482018054600181600116156101000203166002900480601f0160208091040260200160405190810160405280929190818152602001828054600181600116156101000203166002900480156127885780601f1061275d57610100808354040283529160200191612788565b820191906000526020600020905b81548152906001019060200180831161276b57829003601f168201915b50505050508152602001600582018054600181600116156101000203166002900480601f01602080910402602001604051908101604052809291908181526020018280546001816001161561010002031660029004801561282a5780601f106127ff5761010080835404028352916020019161282a565b820191906000526020600020905b81548152906001019060200180831161280d57829003601f168201915b50505050508152602001600682018054600181600116156101000203166002900480601f0160208091040260200160405190810160405280929190818152602001828054600181600116156101000203166002900480156128cc5780601f106128a1576101008083540402835291602001916128cc565b820191906000526020600020905b8154815290600101906020018083116128af57829003601f168201915b505050505081525050915060018c6040518082805190602001908083835b60208310151561290f57805182526020820191506020810190506020830392506128ea565b6001836020036101000a0380198251168184511680821785525050505050509050019150509081526020016040518091039020600080815260200190815260200160002060606040519081016040529081600082018054600181600116156101000203166002900480601f0160208091040260200160405190810160405280929190818152602001828054600181600116156101000203166002900480156129f85780601f106129cd576101008083540402835291602001916129f8565b820191906000526020600020905b8154815290600101906020018083116129db57829003601f168201915b50505050508152602001600182018054600181600116156101000203166002900480601f016020809104026020016040519081016040528092919081815260200182805460018160011615610100020316600290048015612a9a5780601f10612a6f57610100808354040283529160200191612a9a565b820191906000526020600020905b815481529060010190602001808311612a7d57829003601f168201915b50505050508152602001600282018054600181600116156101000203166002900480601f016020809104026020016040519081016040528092919081815260200182805460018160011615610100020316600290048015612b3c5780601f10612b1157610100808354040283529160200191612b3c565b820191906000526020600020905b815481529060010190602001808311612b1f57829003601f168201915b50505050508152505090508160000151826020015183608001518460a0015185604001518560000151866020015187604001518960c001518696508595508393508292508191508090509a509a509a509a509a509a509a509a509a5050509193959799909294969850565b6000809054906101000a900473ffffffffffffffffffffffffffffffffffffffff1673ffffffffffffffffffffffffffffffffffffffff163373ffffffffffffffffffffffffffffffffffffffff16141515612c0257600080fd5b803073ffffffffffffffffffffffffffffffffffffffff163110151515612c2857600080fd5b8173ffffffffffffffffffffffffffffffffffffffff166108fc829081150290604051600060405180830381858888f19350505050158015612c6e573d6000803e3d6000fd5b505050565b828054600181600116156101000203166002900490600052602060002090601f016020900481019282601f10612cb457805160ff1916838001178555612ce2565b82800160010185558215612ce2579182015b82811115612ce1578251825591602001919060010190612cc6565b5b509050612cef9190612e38565b5090565b828054600181600116156101000203166002900490600052602060002090601f016020900481019282601f10612d2c5780548555612d69565b82800160010185558215612d6957600052602060002091601f016020900482015b82811115612d68578254825591600101919060010190612d4d565b5b509050612d769190612e38565b5090565b50805460018160011615610100020316600290046000825580601f10612da05750612dbf565b601f016020900490600052602060002090810190612dbe9190612e38565b5b50565b60e060405190810160405280600081526020016000815260200160008152602001600073ffffffffffffffffffffffffffffffffffffffff1681526020016060815260200160608152602001606081525090565b6060604051908101604052806060815260200160608152602001606081525090565b612e5a91905b80821115612e56576000816000905550600101612e3e565b5090565b905600a165627a7a723058202e4057e279795cb3ad42cfcb8ff5ae6d1c4f0045ea3ab4f1a8321c26d7c3d5080029",
  "source": "pragma solidity ^0.4.24;\r\n\r\ncontract Proof\r\n{\r\n    address private _owner;\r\n\r\n    struct OwnerDetails {\r\n        string firstname;\r\n        string lastname;\r\n        string email;\r\n    }\r\n\r\n    mapping(string => mapping(uint => OwnerDetails)) _owners;\r\n\r\n    struct FileDetails {\r\n        uint timestamp;\r\n        uint blockNumber;\r\n        uint ownerNumbers;\r\n        address mainOwner;\r\n        string ipfsHash;\r\n        string ipfsFileType;\r\n        string comments;\r\n    }\r\n\r\n    mapping(string => FileDetails) _files;\r\n\r\n    modifier validOwner() {\r\n        require(msg.sender == _owner);\r\n        _;\r\n    }\r\n\r\n    modifier validValue() {\r\n        require(msg.value >= 5000000000000000);\r\n        _;\r\n    }\r\n\r\n    modifier validMainFileOwner(string fileHash) {\r\n        require(msg.sender == _files[fileHash].mainOwner);\r\n        _;\r\n    }\r\n\r\n    event logFileAddedStatus(bool status, uint timestamp, string firstname, string lastname, string email, string fileHash, string ipfsHash, string ipfsFileType);\r\n\r\n    constructor() public {\r\n        _owner = msg.sender;\r\n    }\r\n\r\n    function() public payable {}\r\n\r\n    function withdraw(address to, uint amount) validOwner public {\r\n        require(address(this).balance >= amount);\r\n        to.transfer(amount);\r\n    }\r\n\r\n    function setFile(string firstname, string lastname, string email, string fileHash, string ipfsHash, string ipfsFileType, string comments) validValue public payable {\r\n        if (_files[fileHash].timestamp == 0) {\r\n            _owners[fileHash][0] = OwnerDetails(firstname, lastname, email);\r\n            _files[fileHash] = FileDetails(block.timestamp, block.number, 0, msg.sender, ipfsHash, ipfsFileType, comments);\r\n            emit logFileAddedStatus(true, block.timestamp, firstname, lastname, email, fileHash, ipfsHash, ipfsFileType);\r\n        }\r\n        else {\r\n            emit logFileAddedStatus(false, block.timestamp, firstname, lastname, email, fileHash, ipfsHash, ipfsFileType);\r\n        }\r\n    }\r\n\r\n    function addOwner(string firstname, string lastname, string email, string fileHash) validValue validMainFileOwner(fileHash) public payable {\r\n        if (_files[fileHash].timestamp != 0) {\r\n            _files[fileHash].ownerNumbers++;\r\n            _owners[fileHash][_files[fileHash].ownerNumbers] = OwnerDetails(firstname, lastname, email);\r\n        }\r\n    }\r\n\r\n    function removeOwner(string fileHash, uint ownerNumber) validValue validMainFileOwner(fileHash) public payable {\r\n        require(ownerNumber > 0);\r\n        if (_files[fileHash].timestamp != 0) {\r\n            require(_files[fileHash].ownerNumbers >= ownerNumber);\r\n            uint8 replace = 0;\r\n            uint length = _files[fileHash].ownerNumbers;\r\n            for(uint i = 0; i <= length; i++) {\r\n                if (1 == replace) {\r\n                    _owners[fileHash][i-1] = _owners[fileHash][i];\r\n                } else if (keccak256(abi.encodePacked(_owners[fileHash][ownerNumber].firstname)) == keccak256(abi.encodePacked(_owners[fileHash][i].firstname))\r\n                && keccak256(abi.encodePacked(_owners[fileHash][ownerNumber].lastname)) == keccak256(abi.encodePacked(_owners[fileHash][i].lastname))\r\n                && keccak256(abi.encodePacked(_owners[fileHash][ownerNumber].email)) == keccak256(abi.encodePacked(_owners[fileHash][i].email))) {\r\n                    replace = 1;\r\n                }\r\n            }\r\n            assert(replace == 1);\r\n            delete _owners[fileHash][length];\r\n            _files[fileHash].ownerNumbers--;\r\n        }\r\n    }\r\n\r\n    function getFile(string fileHash) public constant returns (\r\n        uint timestamp,\r\n        uint blockNumber,\r\n        //bytes32 blockHash,\r\n        string ipfsHash,\r\n        string ipfsFileType,\r\n        uint ownerNumbers,\r\n        string firstname,\r\n        string lastname,\r\n        string email,\r\n        string comments)\r\n    {\r\n        FileDetails memory fileDetails = _files[fileHash];\r\n        OwnerDetails memory ownerDetails = _owners[fileHash][0];\r\n        return (\r\n        fileDetails.timestamp,\r\n        fileDetails.blockNumber,\r\n        //blockhash(fileDetails.blockNumber),\r\n        fileDetails.ipfsHash,\r\n        fileDetails.ipfsFileType,\r\n        fileDetails.ownerNumbers,\r\n        ownerDetails.firstname,\r\n        ownerDetails.lastname,\r\n        ownerDetails.email,\r\n        fileDetails.comments\r\n        );\r\n    }\r\n\r\n    function getFileOwner(string fileHash, uint ownerNumber) public constant returns (\r\n        string ownerFirstName,\r\n        string ownerLastName,\r\n        string ownerEmail) {\r\n        return (\r\n        _owners[fileHash][ownerNumber].firstname,\r\n        _owners[fileHash][ownerNumber].lastname,\r\n        _owners[fileHash][ownerNumber].email\r\n        );\r\n    }\r\n\r\n}\r\n",
  "sourcePath": "E:\\EthereumContracts\\contracts\\Proof.sol",
  "compiler": {
    "name": "solc",
    "version": "0.4.24+commit.e67f0147.Emscripten.clang"
  },
  "schemaVersion": "2.0.1",
  "updatedAt": "2018-11-18T00:33:57.229Z"
}